:100000000C9472000C9493000C9493000C94930045
:100010000C9493000C9493000C9493000C94930014
:100020000C9493000C9446050C9493000C9493004C
:100030000C9493000C9493000C9493000C949300F4
:100040000C9493000C9493000C9493000C949300E4
:100050000C9493000C94E5000C9411010C94950001
:100060000C9493000C9493000C9493000C949300C4
:100070000C9493000C9493000C9493000C949300B4
:100080000C9493000C9493000C9493000C949300A4
:100090000C9493000C9493000C9493000C94930094
:1000A0000C9493000C9493000C9493000C94930084
:1000B0000C9493000C9493000C9493000C94930074
:1000C0000C9493000C9493000C94CD050C94930025
:1000D0000C9493000C9493000C9493000C94930054
:1000E0000C94930011241FBECFEFD1E2DEBFCDBF31
:1000F00000E00CBF13E0A0E0B2E0EEE6FAE100E0C1
:100100000BBF02C007900D92A830B107D9F713E0DA
:10011000A8E0B3E001C01D92A231B107E1F70E944F
:10012000D7020C94350D0C9400001F920F920FB65D
:100130000F9200905B000F9211248F93AF93BF93A7
:10014000EF93FF93DF93CF93CDB7DEB7E7E4F0E013
:100150008081882399F4E8E4F0E08081882371F4B9
:10016000AEE2B0E0EEE2F0E08081877F8C93A2E027
:10017000B1E0E2E0F1E08081877F8C93E7E4F0E09A
:100180008081882339F0AEE2B0E0EEE2F0E08081D9
:1001900088608C93E8E4F0E08081882339F0A2E065
:1001A000B1E0E2E0F1E0808188608C93CF91DF9153
:1001B000FF91EF91BF91AF918F910F9000925B00F3
:1001C0000F900FBE0F901F9018951F920F920FB6B1
:1001D0000F9200905B000F9211248F93AF93BF9307
:1001E000EF93FF93DF93CF93CDB7DEB7E7E4F0E073
:1001F00080818F3F39F0AEE2B0E0EEE2F0E0808146
:10020000877F8C93CF91DF91FF91EF91BF91AF9159
:100210008F910F9000925B000F900FBE0F901F9078
:1002200018951F920F920FB60F9200905B000F92DD
:1002300011248F93AF93BF93EF93FF93DF93CF93EB
:10024000CDB7DEB7E8E4F0E080818F3F39F0A2E07F
:10025000B1E0E2E0F1E08081877F8C93CF91DF9184
:10026000FF91EF91BF91AF918F910F9000925B0042
:100270000F900FBE0F901F901895DF93CF93CDB7BF
:10028000DEB7ADE2B0E0EDE2F0E0808188608C9313
:10029000A1E0B1E0E1E0F1E0808188608C93AEE222
:1002A000B0E0EEE2F0E08081877F8C93A2E0B1E0E5
:1002B000E2E0F1E08081877F8C93A7E2B0E0E7E2A3
:1002C000F0E080818F608C93A8E2B0E0E8E2F0E09B
:1002D0008081807F8C93E4E4F0E01082E5E4F0E03C
:1002E00083E08083E7E4F0E01082E8E4F0E010824D
:1002F000EEE6F0E087E080837894CF91DF91089577
:10030000DF93CF9300D00F920F92CDB7DEB79A83D1
:1003100089836B838B8185360CF041C18B81882367
:100320000CF43DC189819A819D838C838C819D8150
:100330008230910509F45FC08C819D8183309105E5
:1003400034F48C819D818130910571F028C18C81BC
:100350009D818330910509F495C08C819D81843005
:10036000910509F4D6C01BC1A8E2B0E0E8E2F0E0D4
:1003700080818A7F8C93A8E2B0E0E8E2F0E080819F
:100380008A608C93E7E4F0E08B81482F552747FD86
:100390005095CA019C01220F331FC9019695982FD1
:1003A000882797958795821B930B840F951F24E6CA
:1003B00030E0B9010E94D70CCB018083E8E4F0E083
:1003C0008B81482F552747FD5095CA019C01220F6C
:1003D000331FC9019695982F882797958795821B7B
:1003E000930B840F951F24E630E0B9010E94D70CCF
:1003F000CB018083D4C0A8E2B0E0E8E2F0E08081E5
:10040000857F8C93A8E2B0E0E8E2F0E0808185602F
:100410008C93E7E4F0E08B81482F552747FD5095FA
:10042000CA019C01220F331FC9019695982F882776
:1004300097958795821B930B840F951F24E630E0D8
:10044000B9010E94D70CCB018083E8E4F0E08B81F6
:10045000482F552747FD5095CA019C01220F331F95
:10046000C9019695982F882797958795821B930B9E
:10047000840F951F24E630E0B9010E94D70CCB0110
:1004800080838DC0A8E2B0E0E8E2F0E08081867F62
:100490008C93A8E2B0E0E8E2F0E0808186608C9383
:1004A000E7E4F0E08B81482F552747FD5095CA01BE
:1004B0009C01220F331FC9019695982F8827979585
:1004C0008795821B930B840F951F24E630E0B901BA
:1004D0000E94D70CCB018083E8E4F0E08B81482FA9
:1004E000552747FD5095CA019C01220F331FC901B2
:1004F0009695982F882797958795821B930B840F45
:10050000951F24E630E0B9010E94D70CCB0180830F
:1005100046C0A8E2B0E0E8E2F0E08081897F8C93F9
:10052000A8E2B0E0E8E2F0E0808189608C93E7E443
:10053000F0E08B81482F552747FD5095CA019C015B
:10054000220F331FC9019695982F88279795879575
:10055000821B930B840F951F24E630E0B9010E94A3
:10056000D70CCB018083E8E4F0E08B81482F55273E
:1005700047FD5095CA019C01220F331FC901969572
:10058000982F882797958795821B930B840F951F2B
:1005900024E630E0B9010E94D70CCB0180830F9094
:1005A0000F900F900F900F90CF91DF910895DF93F0
:1005B000CF93CDB7DEB70E943D010E94200580E0B9
:1005C00090E00E94FB02DC01CB01BC01CD0120E0E8
:1005D00030E040E251E40E949609882334F082E042
:1005E00090E06DE20E948001EACF81E090E06FE050
:1005F0000E948001E4CFDF93CF93CDB7DEB7EC97B5
:100600000FB6F894DEBF0FBECDBF9EAB8DAB8DA9EC
:100610009EA99CAF8BAFABADBCAD109731F08BAD4D
:100620009CAD8130910549F00FC0EBE6F0E01082FF
:10063000EBE6F0E081E0808307C0EBE6F0E01082BB
:10064000EBE6F0E082E08083ABE2B0E0EBE2F0E0EA
:100650008081282F81E090E00DA802C0880F991FAB
:100660000A94E2F7822B8C9380E090E0A0E7B1E45B
:100670008DA79EA7AFA7B8AB6DA57EA58FA598A99E
:100680002BEA3AEA4AEA50E40E94C007DC01CB01B7
:1006900089A79AA7ABA7BCA769A57AA58BA59CA596
:1006A00020E030E040E85FE30E94C60988231CF4A4
:1006B00081E088A791C069A57AA58BA59CA520E0BB
:1006C00030E04FE753E40E94660918160CF07BC037
:1006D0006DA57EA58FA598A920E030E04AE754E4F7
:1006E0000E94BA08DC01CB018CA39DA3AEA3BFA3DB
:1006F0006CA17DA18EA19FA120E030E04AE755E4E6
:100700000E94C007DC01CB0188A399A3AAA3BBA3C5
:1007100068A179A18AA19BA120E030E040E85FE3D5
:100720000E94C60988232CF481E090E09F8F8E8F71
:100730003FC068A179A18AA19BA120E03FEF4FE7CC
:1007400057E40E94660918164CF56CA17DA18EA194
:100750009FA120E030E040E251E40E94C007DC01AC
:10076000CB01BC01CD010E94EA05DC01CB019F8FCA
:100770008E8F0FC080E991E09D8F8C8F8C8D9D8D29
:100780000197F1F79D8F8C8F8E8D9F8D01979F8F95
:100790008E8F8E8D9F8D009769F724C068A179A1F7
:1007A0008AA19BA10E94EA05DC01CB019F8F8E8F5D
:1007B0008E8D9F8D9B8F8A8F8A8D9B8D0197F1F7F0
:1007C0009B8F8A8F0FC069A57AA58BA59CA50E94D7
:1007D000EA05DC01CB0188A788A5898F898D8A95D8
:1007E000F1F7898FABE2B0E0EBE2F0E08081282FF7
:1007F00081E090E00DA802C0880F991F0A94E2F7EB
:10080000809582238C9381E090E0909309038093FC
:10081000080380E090E0A0E7B1E48D8B9E8BAF8B66
:10082000B88F6D897E898F89988D2BEA3AEA4AEADA
:1008300050E40E94C007DC01CB01898B9A8BAB8B03
:10084000BC8B69897A898B899C8920E030E040E8FB
:100850005FE30E94C60988231CF481E0888B91C065
:1008600069897A898B899C8920E030E04FE753E4DD
:100870000E94660918160CF07BC06D897E898F89ED
:10088000988D20E030E04AE754E40E94BA08DC0189
:10089000CB018C879D87AE87BF876C857D858E85D4
:1008A0009F8520E030E04AE755E40E94C007DC0164
:1008B000CB0188879987AA87BB87688579858A85D0
:1008C0009B8520E030E040E85FE30E94C609882372
:1008D0002CF481E090E09F838E833FC0688579850A
:1008E0008A859B8520E03FEF4FE757E40E94660929
:1008F00018164CF56C857D858E859F8520E030E04F
:1009000040E251E40E94C007DC01CB01BC01CD01F3
:100910000E94EA05DC01CB019F838E830FC080E932
:1009200091E09D838C838C819D810197F1F79D835C
:100930008C838E819F8101979F838E838E819F817F
:10094000009769F724C0688579858A859B850E9410
:10095000EA05DC01CB019F838E838E819F819B837F
:100960008A838A819B810197F1F79B838A830FC0D9
:1009700069897A898B899C890E94EA05DC01CB010F
:10098000888B8889898389818A95F1F7898319AA57
:100990001AAA1BAA1CAA23C089A99AA9ABA9BCA9F7
:1009A000813624E0920720E0A20720E0B20760F041
:1009B000EBE6F0E0108280E090E0A0E7B2E48FABDD
:1009C00098AFA9AFBAAF2DC089A99AA9ABA9BCA904
:1009D0000196A11DB11D89AB9AABABABBCAB8091AD
:1009E0000803909109030097B9F680910C03909148
:1009F0000D03A0910E03B0910F03BC01CD010E9425
:100A00004A0ADC01CB01BC01CD0120E030E048E620
:100A100054E40E94BA08DC01CB018FAB98AFA9AFB8
:100A2000BAAF8FA998ADA9ADBAADBC01CD01EC9616
:100A30000FB6F894DEBF0FBECDBFCF91DF91089502
:100A4000DF93CF93CDB7DEB7AAE2B0E0EAE2F0E001
:100A5000808183608C93ABE2B0E0EBE2F0E08081D8
:100A60008E7F8C93ABE2B0E0EBE2F0E080818D7F93
:100A70008C93A8E6B0E0E8E6F0E0808181608C939A
:100A8000EBE6F0E01082CF91DF9108951F920F9274
:100A90000FB60F9200905B000F921124EF92FF921D
:100AA0000F931F932F933F934F935F936F937F9376
:100AB0008F939F93AF93BF93EF93FF93DF93CF9366
:100AC000CDB7DEB78091100390911103813091056D
:100AD000C9F5E1E2F1E01082E4E2F1E08081918188
:100AE0007C0100E010E080910A0390910B03AA279B
:100AF00097FDA095BA2F2FEF3FEF40E050E0BC01EB
:100B0000CD010E94B80CDC01CB018E0D9F1DA01FF2
:100B1000B11F80930C0390930D03A0930E03B09329
:100B20000F03E4E2F1E0118210821092110310929F
:100B30001003109209031092080310920B031092F5
:100B40000A0311C0A1E2B1E0E1E2F1E0808181603D
:100B50008C93E3E7F0E081E0808381E090E0909384
:100B6000110380931003CF91DF91FF91EF91BF911B
:100B7000AF919F918F917F916F915F914F913F9135
:100B80002F911F910F91FF90EF900F9000925B00BB
:100B90000F900FBE0F901F9018951F920F920FB6D7
:100BA0000F9211248F939F93DF93CF93CDB7DEB72E
:100BB00080910A0390910B03019690930B0380930D
:100BC0000A03CF91DF919F918F910F900FBE0F90ED
:100BD0001F901895EF92FF920F931F937B018C014A
:100BE00020E030E040E05FE40E94960988238CF02A
:100BF000C801B70120E030E040E05FE40E946207F6
:100C00000E94F6099B01AC01205030404040504802
:100C100006C0C801B7010E94F6099B01AC01B901E9
:100C2000CA011F910F91FF90EF900895A0E0B0E0EE
:100C3000ECE1F6E00C94FE0CDC012B01FA019C9136
:100C4000923008F439C1EB018881823008F433C155
:100C5000943069F4843009F02FC111969C9111975A
:100C60008981981709F428C1A0E0B2E025C1843039
:100C700009F421C18230A9F4923009F01DC19A0112
:100C8000AD0188E0EA010990AE01E90109929E01F7
:100C90008150C1F7E201898111969C91892381835A
:100CA00008C1923009F407C112962D903C90139719
:100CB000EB018A819B811496AD90BD90CD90DC9024
:100CC0001797EC80FD800E811F819101281B390B45
:100CD000B90137FF04C066277727621B730B6032A8
:100CE00071050CF061C0121613066CF5370148014E
:100CF000062E04C096948794779467940A94D2F74A
:100D000021E030E040E050E004C0220F331F441FD8
:100D1000551F6A95D2F721503040404050402E2157
:100D20003F2140235123211531054105510521F073
:100D300021E030E040E050E079018A01E628F72820
:100D4000082919293CC0232BD1F1260E371E350165
:100D50004601062E04C096948794779467940A946B
:100D6000D2F721E030E040E050E004C0220F331F12
:100D7000441F551F6A95D2F72150304040405040E3
:100D80002A213B214C215D212115310541055105C9
:100D900021F021E030E040E050E059016A01A6284E
:100DA000B728C828D9280BC0821593052CF01C0140
:100DB000AA24BB24650103C0EE24FF2487011196F9
:100DC0009C91D20111968C91981709F445C09923F2
:100DD00039F0A80197012A193B094C095D0906C0A1
:100DE000A60195012E193F09400B510B57FD08C074
:100DF00011823382228224833583468357831DC028
:100E000081E081833382228288279927DC01821B3B
:100E1000930BA40BB50B84839583A683B7830DC076
:100E2000220F331F441F551F248335834683578366
:100E300082819381019793838283248135814681C6
:100E40005781DA01C9010197A109B1098F5F9F4F4D
:100E5000AF4FBF4328F30BC0918333822282EA0C49
:100E6000FB1C0C1D1D1DE482F5820683178383E0A5
:100E70008083248135814681578157FF1AC0C9017B
:100E8000AA2797FDA095BA2F81709070A070B070BE
:100E90005695479537952795822B932BA42BB52BE9
:100EA00084839583A683B7838281938101969383FC
:100EB0008283DF0101C0D201CD01CDB7DEB7E2E10F
:100EC0000C941A0DA0E2B0E0E8E6F7E00C940A0DED
:100ED00069837A838B839C832D833E834F835887DA
:100EE000E9E0EE2EF12CEC0EFD1ECE010196B701CD
:100EF0000E94E70B8E010F5E1F4FCE010596B801D1
:100F00000E94E70B8A8991E089278A8BC701B80183
:100F1000AE01475E5F4F0E9416060E94120BA0961C
:100F2000E6E00C94260DA0E2B0E0E9E9F7E00C94CD
:100F30000A0D69837A838B839C832D833E834F8341
:100F40005887F9E0EF2EF12CEC0EFD1ECE01019634
:100F5000B7010E94E70B8E010F5E1F4FCE01059671
:100F6000B8010E94E70BC701B801AE01475E5F4FB1
:100F70000E9416060E94120BA096E6E00C94260D25
:100F8000A0E2B0E0E6ECF7E00C94FE0C69837A8313
:100F90008B839C832D833E834F835887CE0101969C
:100FA000BE01675F7F4F0E94E70BCE010596BE0131
:100FB0006F5E7F4F0E94E70B9985923088F0898998
:100FC0008230C8F0943019F4823051F404C0843077
:100FD00029F4923081F480E092E0C6C0923049F466
:100FE00020E09A858A89981321E02A87CE01099604
:100FF000BBC0823049F420E09A858A89981321E0A9
:101000002A8BCE014196B0C02D843E844F845888EF
:101010006D887E888F88988CEE24FF248701AA240F
:10102000BB24650140E050E060E070E0E0E0F0E00B
:10103000C10181709070892BE9F0E60CF71C081D46
:10104000191D9A01AB012A0D3B1D4C1D5D1D80E051
:1010500090E0A0E0B0E0E614F7040805190520F4DC
:1010600081E090E0A0E0B0E0BA01A901480F591F6B
:101070006A1F7B1FAA0CBB1CCC1CDD1C97FE08C082
:1010800081E090E0A0E0B0E0A82AB92ACA2ADB2AD1
:101090003196E032F10549F0660C771C881C991CEA
:1010A0005694479437942794C3CFFA85EA892B89BD
:1010B0003C898B859C85280F391F2E5F3F4F17C0B9
:1010C000CA0181709070892B61F016950795F7948D
:1010D000E79480E090E0A0E0B0E8E82AF92A0A2B43
:1010E0001B2B76956795579547952F5F3F4F77FD5B
:1010F000E7CF0CC0440F551F661F771F17FD4160D7
:10110000EE0CFF1C001F111F21503040403090E0BA
:10111000590790E0690790E4790760F32B8F3C8FC3
:10112000DB01CA018F779070A070B0708034910598
:10113000A105B10561F447FD0AC0E114F104010500
:10114000110529F0405C5F4F6F4F7F4F40781A8E3A
:10115000FE1711F081E08A8F4D8F5E8F6F8F78A31D
:1011600083E0898FCE0149960E94120BA096E2E19E
:101170000C941A0DA8E1B0E0E0ECF8E00C94060D38
:1011800069837A838B839C832D833E834F83588727
:10119000B9E0EB2EF12CEC0EFD1ECE010196B7014D
:1011A0000E94E70B8E010F5E1F4FCE010596B8011E
:1011B0000E94E70B2985223008F47EC0398932303D
:1011C00010F4B8017CC08A859A8989278A872430DF
:1011D00011F0223031F4231709F06EC060E072E0A4
:1011E0006EC0343039F41D861E861F86188A1C8610
:1011F0001B8604C0323021F484E08987B7015FC0C8
:101200002B853C858B899C89281B390B3C872B8738
:10121000ED84FE840F851889AD88BE88CF88D88C70
:10122000EA14FB040C051D0540F4EE0CFF1C001F26
:10123000111F215030403C872B8720E030E040E0F8
:1012400050E080E090E0A0E0B0E460E070E0EA14FC
:10125000FB040C051D0540F0282B392B4A2B5B2B7A
:10126000EA18FB080C091D09B695A795979587956F
:10127000EE0CFF1C001F111F6F5F7F4F6F31710558
:1012800031F7DA01C9018F779070A070B0708034A7
:101290009105A105B10561F427FD0AC0E114F1042F
:1012A0000105110529F0205C3F4F4F4F5F4F20781B
:1012B0002D873E874F87588BBE01675F7F4FCB01DD
:1012C0000E94120B6896EAE00C94220DA8E1B0E0AF
:1012D000ECE6F9E00C940A0D69837A838B839C8396
:1012E0002D833E834F83588789E0E82EF12CEC0E46
:1012F000FD1ECE010196B7010E94E70B8E010F5E25
:101300001F4FCE010596B8010E94E70B89858230F8
:1013100040F08989823028F0C701B8010E945F0C33
:1013200001C08FEF6896E6E00C94260DA8E1B0E0CE
:10133000ECE9F9E00C940A0D69837A838B839C8332
:101340002D833E834F83588789E0E82EF12CEC0EE5
:10135000FD1ECE010196B7010E94E70B8E010F5EC4
:101360001F4FCE010596B8010E94E70B8985823098
:1013700040F08989823028F0C701B8010E945F0CD3
:1013800001C08FEF6896E6E00C94260DA8E1B0E06E
:10139000ECECF9E00C940A0D69837A838B839C83CF
:1013A0002D833E834F83588789E0E82EF12CEC0E85
:1013B000FD1ECE010196B7010E94E70B8E010F5E64
:1013C0001F4FCE010596B8010E94E70B8985823038
:1013D00040F08989823028F0C701B8010E945F0C73
:1013E00001C081E06896E6E00C94260DACE0B0E028
:1013F000ECEFF9E00C940E0D69837A838B839C8368
:10140000CE010196BE016B5F7F4F0E94E70B8D817D
:10141000823061F1823050F1843021F48E81882352
:1014200051F12EC02F81388537FD20C06E812F31BC
:1014300031051CF06623F9F023C08EE190E0821B99
:10144000930B29853A854B855C8504C05695479555
:10145000379527958A95D2F76623B1F05095409538
:10146000309521953F4F4F4F5F4F0EC020E030E049
:1014700040E050E009C02FEF3FEF4FEF5FE704C0BF
:1014800020E030E040E050E8B901CA012C96E2E0EB
:101490000C942A0DA8E0B0E0E0E5FAE00C94060D0B
:1014A0007B018C01611571058105910519F482E0BC
:1014B000898360C083E089838EE1C82ED12CDC82D1
:1014C000CB82ED82FE820F831887C801B7010E948C
:1014D000C30AFC013197F7FF3BC0222733272E1B9D
:1014E0003F0B57016801022E04C0D694C794B794ED
:1014F000A7940A94D2F740E050E060E070E081E009
:1015000090E0A0E0B0E004C0880F991FAA1FBB1FA5
:101510002A95D2F70197A109B1098E219F21A02315
:10152000B1230097A105B10521F041E050E060E052
:1015300070E04A295B296C297D294D835E836F8386
:1015400078878EE190E08E1B9F0B9C838B8312C06B
:10155000309781F00E2E04C0EE0CFF1C001F111FEF
:101560000A94D2F7ED82FE820F831887CE1ADF0A23
:10157000DC82CB821A82CE0101960E94120B289641
:10158000EAE00C94220DEF92FF920F931F937B01E0
:101590008C0180E0E81680E0F80681E0080780E032
:1015A000180788F48FEFE816F1040105110531F0F2
:1015B00028F088E090E0A0E0B0E017C080E090E084
:1015C000A0E0B0E012C080E0E81680E0F80680E01D
:1015D000080781E0180728F088E190E0A0E0B0E07B
:1015E00004C080E190E0A0E0B0E020E230E040E024
:1015F00050E0281B390B4A0B5B0B04C0169507956E
:10160000F794E7948A95D2F7F701E85FFD4F808160
:10161000281B310941095109C9011F910F91FF9000
:10162000EF900895DF92EF92FF920F931F93FC01CA
:10163000E480F58006811781D1808081823048F472
:1016400080E090E0A0E1B0E0E82AF92A0A2B1B2B09
:10165000A5C0843009F49FC0823021F4EE24FF2419
:10166000870105C0E114F1040105110519F4E0E05A
:10167000F0E096C0628173819FEF623879070CF0C9
:101680005BC022E83FEF261B370B2A3131052CF0D7
:1016900020E030E040E050E02AC0B801A701022E6F
:1016A00004C076956795579547950A94D2F781E0DF
:1016B00090E0A0E0B0E004C0880F991FAA1FBB1FF4
:1016C0002A95D2F70197A109B1098E219F21A02364
:1016D000B1230097A105B10521F081E090E0A0E0E1
:1016E000B0E09A01AB01282B392B4A2B5B2BDA0196
:1016F000C9018F779070A070B07080349105A105FA
:10170000B10539F427FF09C0205C3F4F4F4F5F4FB1
:1017100004C0215C3F4F4F4F5F4FE0E0F0E02030CE
:10172000A0E03A07A0E04A07A0E45A0710F0E1E081
:10173000F0E079018A0127C06038710564F5FB018A
:10174000E158FF4FD801C7018F779070A070B0703B
:1017500080349105A105B10539F4E7FE0DC080E4A0
:1017600090E0A0E0B0E004C08FE390E0A0E0B0E043
:10177000E80EF91E0A1F1B1F17FF05C016950795D7
:10178000F794E794319687E016950795F794E794D8
:101790008A95D1F705C0EE24FF248701EFEFF0E032
:1017A0006E2F679566276795902F9F77D794DD24D6
:1017B000D7948E2F8695492F462B582F5D29B70138
:1017C000CA011F910F91FF90EF90DF900895FC01E7
:1017D000DB01408151812281622F6F7770E0221FEF
:1017E0002227221F9381892F880F822B282F30E0F8
:1017F000991F9927991F11969C93119721153105CF
:10180000A9F5411551056105710511F482E037C054
:1018100082E89FEF13969C938E9312979A01AB01E7
:1018200067E0220F331F441F551F6A95D1F783E0ED
:101830008C930DC0220F331F441F551F12968D919C
:101840009C911397019713969C938E931297203037
:1018500080E0380780E0480780E4580758F3149682
:101860002D933D934D935C93179708952F3F31052A
:1018700079F4411551056105710519F484E08C93E3
:10188000089564FF03C081E08C9312C01C9210C0C5
:101890002F57304013963C932E93129783E08C93EE
:1018A00087E0440F551F661F771F8A95D1F7706434
:1018B00014964D935D936D937C93179708951F93A2
:1018C000DC01FB019C91923008F447C0808182309A
:1018D00008F443C0943051F411961C91843099F56A
:1018E0008181682F70E0611B71093FC0843021F055
:1018F000923031F48230B9F18181882389F12DC091
:1019000011961C9111978230F1F081811817D9F44A
:1019100012962D913C9113978281938182179307A0
:1019200094F028173907BCF014968D919D910D9075
:10193000BC91A02D24813581468157812817390714
:101940004A075B0718F4112341F00AC08217930776
:10195000A407B50740F4112319F061E070E005C059
:101960006FEF7FEF02C060E070E0CB011F91089540
:10197000629FD001739FF001829FE00DF11D649F73
:10198000E00DF11D929FF00D839FF00D749FF00DFF
:10199000659FF00D9927729FB00DE11DF91F639FA0
:1019A000B00DE11DF91FBD01CF011124089597FB72
:1019B000092E07260AD077FD04D00CD006D00020CF
:1019C0001AF4709561957F4F0895F6F7909581957B
:1019D0009F4F0895AA1BBB1B51E107C0AA1FBB1F45
:1019E000A617B70710F0A61BB70B881F991F5A95AB
:1019F000A9F780959095BC01CD0108952F923F9253
:101A00004F925F926F927F928F929F92AF92BF920E
:101A1000CF92DF92EF92FF920F931F93CF93DF93BA
:101A2000CDB7DEB7CA1BDB0B0FB6F894DEBF0FBE17
:101A3000CDBF19942A88398848885F846E847D8454
:101A40008C849B84AA84B984C884DF80EE80FD8066
:101A50000C811B81AA81B981CE0FD11D0FB6F894DC
:0E1A6000DEBF0FBECDBFED010895F894FFCF9D
:101A6E000000000000000000000102020303030357
:101A7E000404040404040404050505050505050510
:101A8E0005050505050505050606060606060606F0
:101A9E0006060606060606060606060606060606D8
:101AAE0006060606060606060707070707070707C0
:101ABE0007070707070707070707070707070707A8
:101ACE000707070707070707070707070707070798
:101ADE000707070707070707070707070707070788
:101AEE000707070707070707080808080808080870
:101AFE000808080808080808080808080808080858
:101B0E000808080808080808080808080808080847
:101B1E000808080808080808080808080808080837
:101B2E000808080808080808080808080808080827
:101B3E000808080808080808080808080808080817
:101B4E000808080808080808080808080808080807
:101B5E0008080808080808080808080808080808F7
:081B6E0008080808080808082F
:00000001FF
