:100000000C9472000C948B000C948B000C948B005D
:100010000C948B000C948B000C948B000C948B0034
:100020000C948B000C948B000C948B000C948B0024
:100030000C948B000C948B000C948B000C948B0014
:100040000C948B000C948B000C948B000C948B0004
:100050000C948B000C94DD000C9409010C948D0021
:100060000C948B000C948B000C948B000C948B00E4
:100070000C948B000C948B000C948B000C948B00D4
:100080000C948B000C948B000C948B000C948B00C4
:100090000C948B000C948B000C948B000C948B00B4
:1000A0000C948B000C948B000C948B000C948B00A4
:1000B0000C948B000C948B000C948B000C948B0094
:1000C0000C948B000C948B000C948B000C948B0084
:1000D0000C948B000C948B000C948B000C948B0074
:1000E0000C948B0011241FBECFEFD1E2DEBFCDBF39
:1000F00000E00CBF12E0A0E0B2E0E8E0F6E000E0D3
:100100000BBF02C007900D92A030B107D9F70E9433
:10011000CF020C9402030C9400001F920F920FB6B2
:100120000F9200905B000F9211248F93AF93BF93B7
:10013000EF93FF93DF93CF93CDB7DEB7E7E4F0E023
:100140008081882399F4E8E4F0E08081882371F4C9
:10015000AEE2B0E0EEE2F0E08081877F8C93A2E037
:10016000B1E0E2E0F1E08081877F8C93E7E4F0E0AA
:100170008081882339F0AEE2B0E0EEE2F0E08081E9
:1001800088608C93E8E4F0E08081882339F0A2E075
:10019000B1E0E2E0F1E0808188608C93CF91DF9163
:1001A000FF91EF91BF91AF918F910F9000925B0003
:1001B0000F900FBE0F901F9018951F920F920FB6C1
:1001C0000F9200905B000F9211248F93AF93BF9317
:1001D000EF93FF93DF93CF93CDB7DEB7E7E4F0E083
:1001E00080818F3F39F0AEE2B0E0EEE2F0E0808156
:1001F000877F8C93CF91DF91FF91EF91BF91AF916A
:100200008F910F9000925B000F900FBE0F901F9088
:1002100018951F920F920FB60F9200905B000F92ED
:1002200011248F93AF93BF93EF93FF93DF93CF93FB
:10023000CDB7DEB7E8E4F0E080818F3F39F0A2E08F
:10024000B1E0E2E0F1E08081877F8C93CF91DF9194
:10025000FF91EF91BF91AF918F910F9000925B0052
:100260000F900FBE0F901F901895DF93CF93CDB7CF
:10027000DEB7ADE2B0E0EDE2F0E0808188608C9323
:10028000A1E0B1E0E1E0F1E0808188608C93AEE232
:10029000B0E0EEE2F0E08081877F8C93A2E0B1E0F5
:1002A000E2E0F1E08081877F8C93A4E2B0E0E4E2B9
:1002B000F0E080818F608C93A5E2B0E0E5E2F0E0B1
:1002C0008081807F8C93E4E4F0E01082E5E4F0E04C
:1002D00083E08083E7E4F0E01082E8E4F0E010825D
:1002E000EEE6F0E087E080837894CF91DF91089587
:1002F000DF93CF9300D00F920F92CDB7DEB79A83E2
:1003000089836B838B8185360CF041C18B81882377
:100310000CF43DC189819A819D838C838C819D8160
:100320008230910509F45FC08C819D8183309105F5
:1003300034F48C819D818130910571F028C18C81CC
:100340009D818330910509F495C08C819D81843015
:10035000910509F4D6C01BC1A5E2B0E0E5E2F0E0EA
:1003600080818A7F8C93A5E2B0E0E5E2F0E08081B5
:100370008A608C93E7E4F0E08B81482F552747FD96
:100380005095CA019C01220F331FC9019695982FE1
:10039000882797958795821B930B840F951F24E6DA
:1003A00030E0B9010E94DB02CB018083E8E4F0E099
:1003B0008B81482F552747FD5095CA019C01220F7C
:1003C000331FC9019695982F882797958795821B8B
:1003D000930B840F951F24E630E0B9010E94DB02E5
:1003E000CB018083D4C0A5E2B0E0E5E2F0E08081FB
:1003F000857F8C93A5E2B0E0E5E2F0E08081856046
:100400008C93E7E4F0E08B81482F552747FD50950A
:10041000CA019C01220F331FC9019695982F882786
:1004200097958795821B930B840F951F24E630E0E8
:10043000B9010E94DB02CB018083E8E4F0E08B810C
:10044000482F552747FD5095CA019C01220F331FA5
:10045000C9019695982F882797958795821B930BAE
:10046000840F951F24E630E0B9010E94DB02CB0126
:1004700080838DC0A5E2B0E0E5E2F0E08081867F78
:100480008C93A5E2B0E0E5E2F0E0808186608C9399
:10049000E7E4F0E08B81482F552747FD5095CA01CE
:1004A0009C01220F331FC9019695982F8827979595
:1004B0008795821B930B840F951F24E630E0B901CA
:1004C0000E94DB02CB018083E8E4F0E08B81482FBF
:1004D000552747FD5095CA019C01220F331FC901C2
:1004E0009695982F882797958795821B930B840F55
:1004F000951F24E630E0B9010E94DB02CB01808326
:1005000046C0A5E2B0E0E5E2F0E08081897F8C930F
:10051000A5E2B0E0E5E2F0E0808189608C93E7E459
:10052000F0E08B81482F552747FD5095CA019C016B
:10053000220F331FC9019695982F88279795879585
:10054000821B930B840F951F24E630E0B9010E94B3
:10055000DB02CB018083E8E4F0E08B81482F552754
:1005600047FD5095CA019C01220F331FC901969582
:10057000982F882797958795821B930B840F951F3B
:1005800024E630E0B9010E94DB02CB0180830F90AA
:100590000F900F900F900F90CF91DF910895DF9300
:1005A000CF93CDB7DEB70E94350182E090E06DE2D7
:1005B0000E947801FACF97FB092E07260AD077FD13
:1005C00004D00CD006D000201AF4709561957F4FAE
:1005D0000895F6F7909581959F4F0895AA1BBB1B30
:1005E00051E107C0AA1FBB1FA617B70710F0A61B33
:1005F000B70B881F991F5A95A9F780959095BC0154
:08060000CD010895F894FFCF2D
:00000001FF
